{
  "contractName": "Auction",
  "abi": [
    {
      "inputs": [
        {
          "internalType": "address",
          "name": "nftCreation",
          "type": "address"
        },
        {
          "internalType": "uint256",
          "name": "_platformFee",
          "type": "uint256"
        }
      ],
      "stateMutability": "nonpayable",
      "type": "constructor"
    },
    {
      "anonymous": false,
      "inputs": [
        {
          "indexed": false,
          "internalType": "uint256",
          "name": "tokenId",
          "type": "uint256"
        },
        {
          "indexed": false,
          "internalType": "bool",
          "name": "isSold",
          "type": "bool"
        }
      ],
      "name": "ChangeBidTokenStatus",
      "type": "event"
    },
    {
      "anonymous": false,
      "inputs": [
        {
          "indexed": false,
          "internalType": "uint256",
          "name": "_bidprice",
          "type": "uint256"
        },
        {
          "indexed": false,
          "internalType": "uint256",
          "name": "_tokenId",
          "type": "uint256"
        },
        {
          "indexed": false,
          "internalType": "address",
          "name": "bidder",
          "type": "address"
        }
      ],
      "name": "MakeBid",
      "type": "event"
    },
    {
      "anonymous": false,
      "inputs": [
        {
          "indexed": false,
          "internalType": "uint256",
          "name": "tokenId",
          "type": "uint256"
        },
        {
          "indexed": false,
          "internalType": "address",
          "name": "winner",
          "type": "address"
        },
        {
          "indexed": false,
          "internalType": "uint256",
          "name": "_bidprice",
          "type": "uint256"
        },
        {
          "indexed": false,
          "internalType": "address",
          "name": "tokenOwner",
          "type": "address"
        },
        {
          "components": [
            {
              "internalType": "uint256",
              "name": "tokenId",
              "type": "uint256"
            },
            {
              "internalType": "address",
              "name": "buyer",
              "type": "address"
            },
            {
              "internalType": "address",
              "name": "seller",
              "type": "address"
            },
            {
              "internalType": "uint256",
              "name": "totalPrice",
              "type": "uint256"
            },
            {
              "internalType": "uint256",
              "name": "time",
              "type": "uint256"
            }
          ],
          "indexed": false,
          "internalType": "struct Auction.orderDetails",
          "name": "newOrder",
          "type": "tuple"
        }
      ],
      "name": "OnBidComplete",
      "type": "event"
    },
    {
      "anonymous": false,
      "inputs": [
        {
          "indexed": false,
          "internalType": "uint256",
          "name": "tokenId",
          "type": "uint256"
        },
        {
          "indexed": false,
          "internalType": "uint256",
          "name": "bidCompleteTime",
          "type": "uint256"
        },
        {
          "indexed": false,
          "internalType": "address",
          "name": "tokenOwner",
          "type": "address"
        }
      ],
      "name": "PutTokenOnBid",
      "type": "event"
    },
    {
      "anonymous": false,
      "inputs": [
        {
          "indexed": false,
          "internalType": "uint256",
          "name": "tokenId",
          "type": "uint256"
        },
        {
          "indexed": false,
          "internalType": "address",
          "name": "tokenOwner",
          "type": "address"
        },
        {
          "indexed": false,
          "internalType": "bool",
          "name": "isOnBid",
          "type": "bool"
        }
      ],
      "name": "RemoveTokenFromBid",
      "type": "event"
    },
    {
      "inputs": [
        {
          "internalType": "uint256",
          "name": "",
          "type": "uint256"
        }
      ],
      "name": "bidItems",
      "outputs": [
        {
          "internalType": "uint256",
          "name": "tokenId",
          "type": "uint256"
        },
        {
          "internalType": "address",
          "name": "owner",
          "type": "address"
        },
        {
          "internalType": "bool",
          "name": "sold",
          "type": "bool"
        },
        {
          "internalType": "bool",
          "name": "onBid",
          "type": "bool"
        },
        {
          "internalType": "uint256",
          "name": "timeOnBid",
          "type": "uint256"
        },
        {
          "internalType": "uint256",
          "name": "timeTillBidComplete",
          "type": "uint256"
        }
      ],
      "stateMutability": "view",
      "type": "function",
      "constant": true
    },
    {
      "inputs": [
        {
          "internalType": "uint256",
          "name": "",
          "type": "uint256"
        }
      ],
      "name": "bidsmapping",
      "outputs": [
        {
          "internalType": "uint256",
          "name": "bidPrice",
          "type": "uint256"
        },
        {
          "internalType": "address",
          "name": "bidder",
          "type": "address"
        },
        {
          "internalType": "uint256",
          "name": "tokenid",
          "type": "uint256"
        }
      ],
      "stateMutability": "view",
      "type": "function",
      "constant": true
    },
    {
      "inputs": [],
      "name": "contractOwner",
      "outputs": [
        {
          "internalType": "address",
          "name": "",
          "type": "address"
        }
      ],
      "stateMutability": "view",
      "type": "function",
      "constant": true
    },
    {
      "inputs": [],
      "name": "nft",
      "outputs": [
        {
          "internalType": "contract NFT",
          "name": "",
          "type": "address"
        }
      ],
      "stateMutability": "view",
      "type": "function",
      "constant": true
    },
    {
      "inputs": [
        {
          "internalType": "address",
          "name": "",
          "type": "address"
        },
        {
          "internalType": "uint256",
          "name": "",
          "type": "uint256"
        }
      ],
      "name": "orderLogs",
      "outputs": [
        {
          "internalType": "uint256",
          "name": "tokenId",
          "type": "uint256"
        },
        {
          "internalType": "address",
          "name": "buyer",
          "type": "address"
        },
        {
          "internalType": "address",
          "name": "seller",
          "type": "address"
        },
        {
          "internalType": "uint256",
          "name": "totalPrice",
          "type": "uint256"
        },
        {
          "internalType": "uint256",
          "name": "time",
          "type": "uint256"
        }
      ],
      "stateMutability": "view",
      "type": "function",
      "constant": true
    },
    {
      "inputs": [],
      "name": "platformFee",
      "outputs": [
        {
          "internalType": "uint256",
          "name": "",
          "type": "uint256"
        }
      ],
      "stateMutability": "view",
      "type": "function",
      "constant": true
    },
    {
      "inputs": [
        {
          "internalType": "uint256",
          "name": "",
          "type": "uint256"
        }
      ],
      "name": "saleItems",
      "outputs": [
        {
          "internalType": "uint256",
          "name": "tokenId",
          "type": "uint256"
        },
        {
          "internalType": "address",
          "name": "owner",
          "type": "address"
        },
        {
          "internalType": "bool",
          "name": "sold",
          "type": "bool"
        },
        {
          "internalType": "bool",
          "name": "onSale",
          "type": "bool"
        },
        {
          "internalType": "uint256",
          "name": "timeOnsale",
          "type": "uint256"
        },
        {
          "internalType": "uint256",
          "name": "price",
          "type": "uint256"
        }
      ],
      "stateMutability": "view",
      "type": "function",
      "constant": true
    },
    {
      "inputs": [],
      "name": "getBidsArray",
      "outputs": [
        {
          "components": [
            {
              "internalType": "uint256",
              "name": "bidPrice",
              "type": "uint256"
            },
            {
              "internalType": "address",
              "name": "bidder",
              "type": "address"
            },
            {
              "internalType": "uint256",
              "name": "tokenid",
              "type": "uint256"
            }
          ],
          "internalType": "struct Auction.forBids[]",
          "name": "",
          "type": "tuple[]"
        }
      ],
      "stateMutability": "view",
      "type": "function",
      "constant": true
    },
    {
      "inputs": [],
      "name": "viewOrderLogs",
      "outputs": [
        {
          "components": [
            {
              "internalType": "uint256",
              "name": "tokenId",
              "type": "uint256"
            },
            {
              "internalType": "address",
              "name": "buyer",
              "type": "address"
            },
            {
              "internalType": "address",
              "name": "seller",
              "type": "address"
            },
            {
              "internalType": "uint256",
              "name": "totalPrice",
              "type": "uint256"
            },
            {
              "internalType": "uint256",
              "name": "time",
              "type": "uint256"
            }
          ],
          "internalType": "struct Auction.orderDetails[]",
          "name": "",
          "type": "tuple[]"
        }
      ],
      "stateMutability": "view",
      "type": "function",
      "constant": true
    },
    {
      "inputs": [
        {
          "internalType": "uint256",
          "name": "tokenId",
          "type": "uint256"
        }
      ],
      "name": "removeTokenFromBid",
      "outputs": [
        {
          "internalType": "bool",
          "name": "",
          "type": "bool"
        }
      ],
      "stateMutability": "nonpayable",
      "type": "function"
    },
    {
      "inputs": [
        {
          "internalType": "uint256",
          "name": "tokenId",
          "type": "uint256"
        },
        {
          "internalType": "uint256",
          "name": "bidCompleteTime",
          "type": "uint256"
        }
      ],
      "name": "putTokenOnBid",
      "outputs": [
        {
          "internalType": "bool",
          "name": "",
          "type": "bool"
        }
      ],
      "stateMutability": "payable",
      "type": "function",
      "payable": true
    },
    {
      "inputs": [
        {
          "internalType": "uint256",
          "name": "_tokenId",
          "type": "uint256"
        }
      ],
      "name": "placeBid",
      "outputs": [],
      "stateMutability": "payable",
      "type": "function",
      "payable": true
    },
    {
      "inputs": [
        {
          "internalType": "uint256",
          "name": "tokenId",
          "type": "uint256"
        }
      ],
      "name": "onBidComplete",
      "outputs": [
        {
          "components": [
            {
              "internalType": "uint256",
              "name": "tokenId",
              "type": "uint256"
            },
            {
              "internalType": "address",
              "name": "buyer",
              "type": "address"
            },
            {
              "internalType": "address",
              "name": "seller",
              "type": "address"
            },
            {
              "internalType": "uint256",
              "name": "totalPrice",
              "type": "uint256"
            },
            {
              "internalType": "uint256",
              "name": "time",
              "type": "uint256"
            }
          ],
          "internalType": "struct Auction.orderDetails",
          "name": "",
          "type": "tuple"
        }
      ],
      "stateMutability": "payable",
      "type": "function",
      "payable": true
    }
  ],
  "bytecode": "0x60806040523480156200001157600080fd5b5060405162002c8138038062002c8183398181016040528101906200003791906200016d565b81600660006101000a81548173ffffffffffffffffffffffffffffffffffffffff021916908373ffffffffffffffffffffffffffffffffffffffff16021790555033600260006101000a81548173ffffffffffffffffffffffffffffffffffffffff021916908373ffffffffffffffffffffffffffffffffffffffff160217905550806000819055505050620001b4565b600080fd5b600073ffffffffffffffffffffffffffffffffffffffff82169050919050565b6000620000fa82620000cd565b9050919050565b6200010c81620000ed565b81146200011857600080fd5b50565b6000815190506200012c8162000101565b92915050565b6000819050919050565b620001478162000132565b81146200015357600080fd5b50565b60008151905062000167816200013c565b92915050565b60008060408385031215620001875762000186620000c8565b5b600062000197858286016200011b565b9250506020620001aa8582860162000156565b9150509250929050565b612abd80620001c46000396000f3fe6080604052600436106100c25760003560e01c80635ca3e4781161007f57806399606b9a1161005957806399606b9a146102b45780639979ef45146102e45780639ca35f3514610300578063ce606ee014610330576100c2565b80635ca3e478146101f4578063815db4fc146102315780638abf209214610272576100c2565b806326232a2e146100c75780632c73d9d4146100f25780633cbda4541461013157806347ccca0214610173578063494bd8851461019e578063543e5a5a146101c9575b600080fd5b3480156100d357600080fd5b506100dc61035b565b6040516100e99190611aaf565b60405180910390f35b3480156100fe57600080fd5b5061011960048036038101906101149190611afb565b610361565b60405161012893929190611b69565b60405180910390f35b34801561013d57600080fd5b5061015860048036038101906101539190611afb565b6103ab565b60405161016a96959493929190611bbb565b60405180910390f35b34801561017f57600080fd5b50610188610421565b6040516101959190611c7b565b60405180910390f35b3480156101aa57600080fd5b506101b3610447565b6040516101c09190611da5565b60405180910390f35b3480156101d557600080fd5b506101de610510565b6040516101eb9190611ede565b60405180910390f35b34801561020057600080fd5b5061021b60048036038101906102169190611afb565b610730565b6040516102289190611f00565b60405180910390f35b34801561023d57600080fd5b5061025860048036038101906102539190611f47565b610884565b604051610269959493929190611f87565b60405180910390f35b34801561027e57600080fd5b5061029960048036038101906102949190611afb565b610917565b6040516102ab96959493929190611bbb565b60405180910390f35b6102ce60048036038101906102c99190611fda565b61098d565b6040516102db9190611f00565b60405180910390f35b6102fe60048036038101906102f99190611afb565b610add565b005b61031a60048036038101906103159190611afb565b610f6b565b6040516103279190612082565b60405180910390f35b34801561033c57600080fd5b5061034561186a565b604051610352919061209d565b60405180910390f35b60005481565b60046020528060005260406000206000915090508060000154908060010160009054906101000a900473ffffffffffffffffffffffffffffffffffffffff16908060020154905083565b60076020528060005260406000206000915090508060000154908060010160009054906101000a900473ffffffffffffffffffffffffffffffffffffffff16908060010160149054906101000a900460ff16908060010160159054906101000a900460ff16908060020154908060030154905086565b600660009054906101000a900473ffffffffffffffffffffffffffffffffffffffff1681565b60606003805480602002602001604051908101604052809291908181526020016000905b828210156105075783829060005260206000209060030201604051806060016040529081600082015481526020016001820160009054906101000a900473ffffffffffffffffffffffffffffffffffffffff1673ffffffffffffffffffffffffffffffffffffffff1673ffffffffffffffffffffffffffffffffffffffff1681526020016002820154815250508152602001906001019061046b565b50505050905090565b60606000600160003373ffffffffffffffffffffffffffffffffffffffff1673ffffffffffffffffffffffffffffffffffffffff16815260200190815260200160002080549050905060008167ffffffffffffffff811115610575576105746120b8565b5b6040519080825280602002602001820160405280156105ae57816020015b61059b611a3b565b8152602001906001900390816105935790505b50905060005b82811015610727576000600160003373ffffffffffffffffffffffffffffffffffffffff1673ffffffffffffffffffffffffffffffffffffffff168152602001908152602001600020828154811061060f5761060e6120e7565b5b90600052602060002090600502019050806040518060a0016040529081600082015481526020016001820160009054906101000a900473ffffffffffffffffffffffffffffffffffffffff1673ffffffffffffffffffffffffffffffffffffffff1673ffffffffffffffffffffffffffffffffffffffff1681526020016002820160009054906101000a900473ffffffffffffffffffffffffffffffffffffffff1673ffffffffffffffffffffffffffffffffffffffff1673ffffffffffffffffffffffffffffffffffffffff16815260200160038201548152602001600482015481525050838381518110610708576107076120e7565b5b602002602001018190525050808061071f90612145565b9150506105b4565b50809250505090565b600080600660009054906101000a900473ffffffffffffffffffffffffffffffffffffffff1673ffffffffffffffffffffffffffffffffffffffff166370a08231336040518263ffffffff1660e01b815260040161078e919061209d565b602060405180830381865afa1580156107ab573d6000803e3d6000fd5b505050506040513d601f19601f820116820180604052508101906107cf91906121a3565b1415610810576040517f08c379a00000000000000000000000000000000000000000000000000000000081526004016108079061222d565b60405180910390fd5b60006007600084815260200190815260200160002060010160156101000a81548160ff0219169083151502179055507ff19e859622811df315770d3049d42a79a251f110165344c13845560ddf69e265823360006040516108739392919061224d565b60405180910390a160019050919050565b600160205281600052604060002081815481106108a057600080fd5b9060005260206000209060050201600091509150508060000154908060010160009054906101000a900473ffffffffffffffffffffffffffffffffffffffff16908060020160009054906101000a900473ffffffffffffffffffffffffffffffffffffffff16908060030154908060040154905085565b60056020528060005260406000206000915090508060000154908060010160009054906101000a900473ffffffffffffffffffffffffffffffffffffffff16908060010160149054906101000a900460ff16908060010160159054906101000a900460ff16908060020154908060030154905086565b6000806040518060c001604052808581526020013373ffffffffffffffffffffffffffffffffffffffff16815260200160001515815260200160011515815260200142815260200184815250905080600760008681526020019081526020016000206000820151816000015560208201518160010160006101000a81548173ffffffffffffffffffffffffffffffffffffffff021916908373ffffffffffffffffffffffffffffffffffffffff16021790555060408201518160010160146101000a81548160ff02191690831515021790555060608201518160010160156101000a81548160ff0219169083151502179055506080820151816002015560a082015181600301559050507fbee467994f6b3620e91c0a8a1274a6cae09285526bcb49e0c1f187d1e555a493848433604051610aca93929190612284565b60405180910390a1600191505092915050565b3373ffffffffffffffffffffffffffffffffffffffff166007600083815260200190815260200160002060010160009054906101000a900473ffffffffffffffffffffffffffffffffffffffff1673ffffffffffffffffffffffffffffffffffffffff161415610b82576040517f08c379a0000000000000000000000000000000000000000000000000000000008152600401610b799061232d565b60405180910390fd5b42600760008381526020019081526020016000206003015410610bda576040517f08c379a0000000000000000000000000000000000000000000000000000000008152600401610bd190612399565b60405180910390fd5b600060076000838152602001908152602001600020600201541415610c34576040517f08c379a0000000000000000000000000000000000000000000000000000000008152600401610c2b90612405565b60405180910390fd5b6007600082815260200190815260200160002060010160149054906101000a900460ff1615610c98576040517f08c379a0000000000000000000000000000000000000000000000000000000008152600401610c8f90612471565b60405180910390fd5b600115156007600083815260200190815260200160002060010160159054906101000a900460ff16151514610d02576040517f08c379a0000000000000000000000000000000000000000000000000000000008152600401610cf9906124dd565b60405180910390fd5b600060046000838152602001908152602001600020600001549050348110610d5f576040517f08c379a0000000000000000000000000000000000000000000000000000000008152600401610d569061256f565b60405180910390fd5b60006004600084815260200190815260200160002060010160009054906101000a900473ffffffffffffffffffffffffffffffffffffffff1690508073ffffffffffffffffffffffffffffffffffffffff166108fc839081150290604051600060405180830381858888f19350505050158015610de0573d6000803e3d6000fd5b50346004600085815260200190815260200160002060000181905550336004600085815260200190815260200160002060010160006101000a81548173ffffffffffffffffffffffffffffffffffffffff021916908373ffffffffffffffffffffffffffffffffffffffff160217905550826004600085815260200190815260200160002060020181905550600060405180606001604052803481526020013373ffffffffffffffffffffffffffffffffffffffff16815260200185815250905060038190806001815401808255809150506001900390600052602060002090600302016000909190919091506000820151816000015560208201518160010160006101000a81548173ffffffffffffffffffffffffffffffffffffffff021916908373ffffffffffffffffffffffffffffffffffffffff1602179055506040820151816002015550507fd77b491d1b49e08861a9d088a596bc2ddfb4ab7f4df3c2ba4c2deaeb89ec1474348533604051610f5d93929190612284565b60405180910390a150505050565b610f73611a3b565b600260009054906101000a900473ffffffffffffffffffffffffffffffffffffffff1673ffffffffffffffffffffffffffffffffffffffff163373ffffffffffffffffffffffffffffffffffffffff1614611003576040517f08c379a0000000000000000000000000000000000000000000000000000000008152600401610ffa90612601565b60405180910390fd5b816007600082815260200190815260200160002060010160149054906101000a900460ff1615611068576040517f08c379a000000000000000000000000000000000000000000000000000000000815260040161105f9061266d565b60405180910390fd5b600060076000858152602001908152602001600020600301544261108c919061268d565b10156110cd576040517f08c379a00000000000000000000000000000000000000000000000000000000081526004016110c49061270d565b60405180910390fd5b600060076000858152602001908152602001600020600201541415611127576040517f08c379a000000000000000000000000000000000000000000000000000000000815260040161111e90612779565b60405180910390fd5b6007600084815260200190815260200160002060010160149054906101000a900460ff161561118b576040517f08c379a00000000000000000000000000000000000000000000000000000000081526004016111829061266d565b60405180910390fd5b600115156007600085815260200190815260200160002060010160159054906101000a900460ff161515146111f5576040517f08c379a00000000000000000000000000000000000000000000000000000000081526004016111ec906127e5565b60405180910390fd5b600660009054906101000a900473ffffffffffffffffffffffffffffffffffffffff1673ffffffffffffffffffffffffffffffffffffffff1663e985e9c56007600086815260200190815260200160002060010160009054906101000a900473ffffffffffffffffffffffffffffffffffffffff16306040518363ffffffff1660e01b8152600401611288929190612805565b602060405180830381865afa1580156112a5573d6000803e3d6000fd5b505050506040513d601f19601f820116820180604052508101906112c9919061285a565b611308576040517f08c379a00000000000000000000000000000000000000000000000000000000081526004016112ff906128f9565b60405180910390fd5b60006040518060a001604052808581526020016004600087815260200190815260200160002060010160009054906101000a900473ffffffffffffffffffffffffffffffffffffffff1673ffffffffffffffffffffffffffffffffffffffff1681526020016007600087815260200190815260200160002060010160009054906101000a900473ffffffffffffffffffffffffffffffffffffffff1673ffffffffffffffffffffffffffffffffffffffff16815260200160046000878152602001908152602001600020600001548152602001428152509050600160006004600087815260200190815260200160002060010160009054906101000a900473ffffffffffffffffffffffffffffffffffffffff1673ffffffffffffffffffffffffffffffffffffffff1673ffffffffffffffffffffffffffffffffffffffff1681526020019081526020016000208190806001815401808255809150506001900390600052602060002090600502016000909190919091506000820151816000015560208201518160010160006101000a81548173ffffffffffffffffffffffffffffffffffffffff021916908373ffffffffffffffffffffffffffffffffffffffff16021790555060408201518160020160006101000a81548173ffffffffffffffffffffffffffffffffffffffff021916908373ffffffffffffffffffffffffffffffffffffffff16021790555060608201518160030155608082015181600401555050611539846001611890565b5060006004600086815260200190815260200160002060000154905060006115916115826064611574600054866119f990919063ffffffff16565b611a0f90919063ffffffff16565b83611a2590919063ffffffff16565b9050600260009054906101000a900473ffffffffffffffffffffffffffffffffffffffff1673ffffffffffffffffffffffffffffffffffffffff166108fc6115f760646115e9600054876119f990919063ffffffff16565b611a0f90919063ffffffff16565b9081150290604051600060405180830381858888f19350505050158015611622573d6000803e3d6000fd5b506007600087815260200190815260200160002060010160009054906101000a900473ffffffffffffffffffffffffffffffffffffffff1673ffffffffffffffffffffffffffffffffffffffff166108fc829081150290604051600060405180830381858888f1935050505015801561169f573d6000803e3d6000fd5b50600660009054906101000a900473ffffffffffffffffffffffffffffffffffffffff1673ffffffffffffffffffffffffffffffffffffffff166342842e0e6007600089815260200190815260200160002060010160009054906101000a900473ffffffffffffffffffffffffffffffffffffffff16600460008a815260200190815260200160002060010160009054906101000a900473ffffffffffffffffffffffffffffffffffffffff16896040518463ffffffff1660e01b815260040161176b93929190612919565b600060405180830381600087803b15801561178557600080fd5b505af1158015611799573d6000803e3d6000fd5b505050507f0680d99aaa6ed46befe17004cb4c55ddcbd6ed88945f97b4a607d6f53b9f5951866004600089815260200190815260200160002060010160009054906101000a900473ffffffffffffffffffffffffffffffffffffffff16600460008a815260200190815260200160002060000154600760008b815260200190815260200160002060010160009054906101000a900473ffffffffffffffffffffffffffffffffffffffff1687604051611856959493929190612950565b60405180910390a182945050505050919050565b600260009054906101000a900473ffffffffffffffffffffffffffffffffffffffff1681565b6000826007600082815260200190815260200160002060010160149054906101000a900460ff16156118f7576040517f08c379a00000000000000000000000000000000000000000000000000000000081526004016118ee9061266d565b60405180910390fd5b600260009054906101000a900473ffffffffffffffffffffffffffffffffffffffff1673ffffffffffffffffffffffffffffffffffffffff163373ffffffffffffffffffffffffffffffffffffffff1614611987576040517f08c379a000000000000000000000000000000000000000000000000000000000815260040161197e90612601565b60405180910390fd5b826007600086815260200190815260200160002060010160146101000a81548160ff0219169083151502179055507f227309206a9bdae79e371d2ffd8ff0b018d19ad7e302c70e00c3e7ef67b5dcb084846040516119e69291906129a4565b60405180910390a1600191505092915050565b60008183611a0791906129cd565b905092915050565b60008183611a1d9190612a56565b905092915050565b60008183611a33919061268d565b905092915050565b6040518060a0016040528060008152602001600073ffffffffffffffffffffffffffffffffffffffff168152602001600073ffffffffffffffffffffffffffffffffffffffff16815260200160008152602001600081525090565b6000819050919050565b611aa981611a96565b82525050565b6000602082019050611ac46000830184611aa0565b92915050565b600080fd5b611ad881611a96565b8114611ae357600080fd5b50565b600081359050611af581611acf565b92915050565b600060208284031215611b1157611b10611aca565b5b6000611b1f84828501611ae6565b91505092915050565b600073ffffffffffffffffffffffffffffffffffffffff82169050919050565b6000611b5382611b28565b9050919050565b611b6381611b48565b82525050565b6000606082019050611b7e6000830186611aa0565b611b8b6020830185611b5a565b611b986040830184611aa0565b949350505050565b60008115159050919050565b611bb581611ba0565b82525050565b600060c082019050611bd06000830189611aa0565b611bdd6020830188611b5a565b611bea6040830187611bac565b611bf76060830186611bac565b611c046080830185611aa0565b611c1160a0830184611aa0565b979650505050505050565b6000819050919050565b6000611c41611c3c611c3784611b28565b611c1c565b611b28565b9050919050565b6000611c5382611c26565b9050919050565b6000611c6582611c48565b9050919050565b611c7581611c5a565b82525050565b6000602082019050611c906000830184611c6c565b92915050565b600081519050919050565b600082825260208201905092915050565b6000819050602082019050919050565b611ccb81611a96565b82525050565b611cda81611b48565b82525050565b606082016000820151611cf66000850182611cc2565b506020820151611d096020850182611cd1565b506040820151611d1c6040850182611cc2565b50505050565b6000611d2e8383611ce0565b60608301905092915050565b6000602082019050919050565b6000611d5282611c96565b611d5c8185611ca1565b9350611d6783611cb2565b8060005b83811015611d98578151611d7f8882611d22565b9750611d8a83611d3a565b925050600181019050611d6b565b5085935050505092915050565b60006020820190508181036000830152611dbf8184611d47565b905092915050565b600081519050919050565b600082825260208201905092915050565b6000819050602082019050919050565b60a082016000820151611e096000850182611cc2565b506020820151611e1c6020850182611cd1565b506040820151611e2f6040850182611cd1565b506060820151611e426060850182611cc2565b506080820151611e556080850182611cc2565b50505050565b6000611e678383611df3565b60a08301905092915050565b6000602082019050919050565b6000611e8b82611dc7565b611e958185611dd2565b9350611ea083611de3565b8060005b83811015611ed1578151611eb88882611e5b565b9750611ec383611e73565b925050600181019050611ea4565b5085935050505092915050565b60006020820190508181036000830152611ef88184611e80565b905092915050565b6000602082019050611f156000830184611bac565b92915050565b611f2481611b48565b8114611f2f57600080fd5b50565b600081359050611f4181611f1b565b92915050565b60008060408385031215611f5e57611f5d611aca565b5b6000611f6c85828601611f32565b9250506020611f7d85828601611ae6565b9150509250929050565b600060a082019050611f9c6000830188611aa0565b611fa96020830187611b5a565b611fb66040830186611b5a565b611fc36060830185611aa0565b611fd06080830184611aa0565b9695505050505050565b60008060408385031215611ff157611ff0611aca565b5b6000611fff85828601611ae6565b925050602061201085828601611ae6565b9150509250929050565b60a0820160008201516120306000850182611cc2565b5060208201516120436020850182611cd1565b5060408201516120566040850182611cd1565b5060608201516120696060850182611cc2565b50608082015161207c6080850182611cc2565b50505050565b600060a082019050612097600083018461201a565b92915050565b60006020820190506120b26000830184611b5a565b92915050565b7f4e487b7100000000000000000000000000000000000000000000000000000000600052604160045260246000fd5b7f4e487b7100000000000000000000000000000000000000000000000000000000600052603260045260246000fd5b7f4e487b7100000000000000000000000000000000000000000000000000000000600052601160045260246000fd5b600061215082611a96565b91507fffffffffffffffffffffffffffffffffffffffffffffffffffffffffffffffff82141561218357612182612116565b5b600182019050919050565b60008151905061219d81611acf565b92915050565b6000602082840312156121b9576121b8611aca565b5b60006121c78482850161218e565b91505092915050565b600082825260208201905092915050565b7f596f7520646f6e6f74206f776e2074686520746f6b656e000000000000000000600082015250565b60006122176017836121d0565b9150612222826121e1565b602082019050919050565b600060208201905081810360008301526122468161220a565b9050919050565b60006060820190506122626000830186611aa0565b61226f6020830185611b5a565b61227c6040830184611bac565b949350505050565b60006060820190506122996000830186611aa0565b6122a66020830185611aa0565b6122b36040830184611b5a565b949350505050565b7f4f574e45525f4f465f544f4b454e5f43414e4e4f545f504c4143455f415f424960008201527f4400000000000000000000000000000000000000000000000000000000000000602082015250565b60006123176021836121d0565b9150612322826122bb565b604082019050919050565b600060208201905081810360008301526123468161230a565b9050919050565b7f42494444494e475f504552494f445f434f4d504c455445440000000000000000600082015250565b60006123836018836121d0565b915061238e8261234d565b602082019050919050565b600060208201905081810360008301526123b281612376565b9050919050565b7f544f4b454e5f49535f4e4f545f42555941424c45000000000000000000000000600082015250565b60006123ef6014836121d0565b91506123fa826123b9565b602082019050919050565b6000602082019050818103600083015261241e816123e2565b9050919050565b7f544f4b454e5f414c52454144595f534f4c440000000000000000000000000000600082015250565b600061245b6012836121d0565b915061246682612425565b602082019050919050565b6000602082019050818103600083015261248a8161244e565b9050919050565b7f544f4b454e5f49535f4e4f545f4f4e5f42494400000000000000000000000000600082015250565b60006124c76013836121d0565b91506124d282612491565b602082019050919050565b600060208201905081810360008301526124f6816124ba565b9050919050565b7f594f55525f4249445f56414c55455f49535f4c4553535f5448414e5f4355525260008201527f454e545f42494400000000000000000000000000000000000000000000000000602082015250565b60006125596027836121d0565b9150612564826124fd565b604082019050919050565b600060208201905081810360008301526125888161254c565b9050919050565b7f596f7520617265206e6f74207065726d697474656420746f2063616c6c20746860008201527f69732066756e6374696f6e000000000000000000000000000000000000000000602082015250565b60006125eb602b836121d0565b91506125f68261258f565b604082019050919050565b6000602082019050818103600083015261261a816125de565b9050919050565b7f546f6b656e20697320616c726561647920736f6c642100000000000000000000600082015250565b60006126576016836121d0565b915061266282612621565b602082019050919050565b600060208201905081810360008301526126868161264a565b9050919050565b600061269882611a96565b91506126a383611a96565b9250828210156126b6576126b5612116565b5b828203905092915050565b7f42696464696e672074696d65206973207374696c6c2072756e6e696e67000000600082015250565b60006126f7601d836121d0565b9150612702826126c1565b602082019050919050565b60006020820190508181036000830152612726816126ea565b9050919050565b7f546f6b656e206973206e6f742062757961626c65210000000000000000000000600082015250565b60006127636015836121d0565b915061276e8261272d565b602082019050919050565b6000602082019050818103600083015261279281612756565b9050919050565b7f546f6b656e206973206e6f74206f6e2042696421000000000000000000000000600082015250565b60006127cf6014836121d0565b91506127da82612799565b602082019050919050565b600060208201905081810360008301526127fe816127c2565b9050919050565b600060408201905061281a6000830185611b5a565b6128276020830184611b5a565b9392505050565b61283781611ba0565b811461284257600080fd5b50565b6000815190506128548161282e565b92915050565b6000602082840312156128705761286f611aca565b5b600061287e84828501612845565b91505092915050565b7f546f6b656e206973206e6f7420617070726f76656420746f207472616e66657260008201527f2100000000000000000000000000000000000000000000000000000000000000602082015250565b60006128e36021836121d0565b91506128ee82612887565b604082019050919050565b60006020820190508181036000830152612912816128d6565b9050919050565b600060608201905061292e6000830186611b5a565b61293b6020830185611b5a565b6129486040830184611aa0565b949350505050565b6000610120820190506129666000830188611aa0565b6129736020830187611b5a565b6129806040830186611aa0565b61298d6060830185611b5a565b61299a608083018461201a565b9695505050505050565b60006040820190506129b96000830185611aa0565b6129c66020830184611bac565b9392505050565b60006129d882611a96565b91506129e383611a96565b9250817fffffffffffffffffffffffffffffffffffffffffffffffffffffffffffffffff0483118215151615612a1c57612a1b612116565b5b828202905092915050565b7f4e487b7100000000000000000000000000000000000000000000000000000000600052601260045260246000fd5b6000612a6182611a96565b9150612a6c83611a96565b925082612a7c57612a7b612a27565b5b82820490509291505056fea2646970667358221220366a750b00610255db5aa6b949058eb1d632dd86131d34c7b8a0ffb17a2a32c564736f6c634300080a0033",
  "immutableReferences": {},
  "source": "// SPDX-License-Identifier: MIT\r\npragma solidity ^0.8.4;\r\n\r\nimport \"@openzeppelin/contracts/utils/math/SafeMath.sol\";\r\nimport \"./NFT.sol\";\r\n\r\ncontract Auction {\r\n    \r\n    using SafeMath for uint256; \r\n    uint256 public platformFee;\r\n    \r\n    struct orderDetails {\r\n        uint256 tokenId;\r\n        address buyer;\r\n        address seller;\r\n        uint256 totalPrice;\r\n        uint256 time;\r\n    }\r\n    \r\n    mapping(address=>orderDetails[]) public orderLogs;\r\n \r\n    address public contractOwner ;\r\n    \r\n    struct forBids{\r\n        uint256 bidPrice;\r\n        address bidder;\r\n        uint256 tokenid;\r\n    }\r\n\r\n    forBids[] bidsArray;\r\n\r\n    mapping(uint256 => forBids) public bidsmapping;\r\n\r\n\r\n    struct onSaleItem {\r\n        uint256 tokenId;\r\n        address owner;\r\n        bool sold;\r\n        bool onSale;\r\n        uint256 timeOnsale;\r\n        uint256 price;\r\n    }\r\n    \r\n    mapping(uint256=>onSaleItem) public saleItems;\r\n     \r\n    NFT public nft;\r\n     \r\n    struct onBidItem{\r\n        uint256 tokenId;\r\n        address  owner;\r\n        bool sold;\r\n        bool onBid;\r\n        uint256 timeOnBid;\r\n        uint256  timeTillBidComplete;\r\n    }\r\n    \r\n    mapping( uint256 => onBidItem) public bidItems;\r\n     \r\n    \r\n    constructor(address nftCreation, uint256 _platformFee) {\r\n        nft = NFT(nftCreation);\r\n        contractOwner = msg.sender;\r\n        platformFee = _platformFee;\r\n    }\r\n        \r\n    event PutTokenOnBid(uint256 tokenId,uint256 bidCompleteTime,address tokenOwner);\r\n    event MakeBid(uint256 _bidprice,uint256 _tokenId,address bidder);\r\n    event OnBidComplete(uint256 tokenId,address winner,uint256 _bidprice,address tokenOwner,orderDetails newOrder);\r\n    event RemoveTokenFromBid(uint256 tokenId,address tokenOwner,bool isOnBid);\r\n    event ChangeBidTokenStatus(uint256 tokenId,bool isSold);\r\n        \r\n    modifier checkTokenOwner(uint256 tokenId){\r\n      require(nft.balanceOf(msg.sender)!=0,'You do not own the token');\r\n        _;  \r\n    }\r\n    \r\n    modifier onlyOwner(){\r\n        require(msg.sender == contractOwner,\"You are not permitted to call this function\");\r\n        _;\r\n    }\r\n     \r\n    modifier tokenNotSoldAlready(uint256 tokenId){\r\n        require(!bidItems[tokenId].sold,\"Token is already sold!\");\r\n        _;\r\n    }\r\n    \r\n    function getBidsArray()public view returns(forBids[] memory){\r\n        return bidsArray;\r\n    }\r\n    \r\n     // Get the all order logs for perticualr buyer.\r\n    function viewOrderLogs()external view returns(orderDetails[] memory ){\r\n        uint length=orderLogs[msg.sender].length;\r\n         orderDetails[] memory records = new orderDetails[](length);\r\n        for (uint i=0; i<length; i++) {\r\n            orderDetails storage orderDetail = orderLogs[msg.sender][i];\r\n            records[i]=orderDetail;\r\n        }\r\n        return records;\r\n    }\r\n    \r\n    function removeTokenFromBid(uint256 tokenId)external returns(bool){\r\n        \r\n        require(nft.balanceOf(msg.sender)!=0 ,\"You donot own the token\");\r\n        bidItems[tokenId].onBid=false;\r\n        emit RemoveTokenFromBid(tokenId,msg.sender,false);\r\n        //from node side=>nft.setApprovalForAll(address(this),false);\r\n        return true;\r\n    }\r\n    \r\n    function changeBidTokenStatus(uint256 tokenId,bool status)internal tokenNotSoldAlready(tokenId) onlyOwner() returns(bool){\r\n      bidItems[tokenId].sold=status;\r\n       emit ChangeBidTokenStatus(tokenId,status);\r\n        return true;\r\n    }\r\n    \r\n    function putTokenOnBid(uint256 tokenId,uint256 bidCompleteTime)external payable returns(bool){\r\n     //node side => nft.setApprovalForAll(address (this),true);\r\n        onBidItem memory newBidItem=onBidItem({\r\n            tokenId:tokenId, \r\n            owner:msg.sender,\r\n            sold:false,\r\n            onBid:true,\r\n            timeOnBid:block.timestamp,\r\n            timeTillBidComplete:bidCompleteTime\r\n           \r\n        });\r\n        bidItems[tokenId]=newBidItem;\r\n        emit PutTokenOnBid(tokenId,bidCompleteTime,msg.sender);\r\n        return true;\r\n    }\r\n    \r\n    function placeBid(uint256 _tokenId) public payable {\r\n        \r\n        require(bidItems[_tokenId].owner!= msg.sender, \"OWNER_OF_TOKEN_CANNOT_PLACE_A_BID\");\r\n        require(bidItems[_tokenId].timeTillBidComplete < block.timestamp, \"BIDDING_PERIOD_COMPLETED\");\r\n        require(bidItems[_tokenId].timeOnBid != 0, \"TOKEN_IS_NOT_BUYABLE\");\r\n        require(!bidItems[_tokenId].sold, \"TOKEN_ALREADY_SOLD\");\r\n        require(bidItems[_tokenId].onBid == true, \"TOKEN_IS_NOT_ON_BID\");\r\n        \r\n        // Check if someone bidded previously\r\n        uint256 prevBidPrice = bidsmapping[_tokenId].bidPrice;\r\n        \r\n        require(prevBidPrice < msg.value, \"YOUR_BID_VALUE_IS_LESS_THAN_CURRENT_BID\");\r\n        \r\n        // Refund Last Bidder\r\n        address lastBidder = bidsmapping[_tokenId].bidder;\r\n        payable(lastBidder).transfer(prevBidPrice);\r\n        \r\n        // Update Bid\r\n        bidsmapping[_tokenId].bidPrice = msg.value;\r\n        bidsmapping[_tokenId].bidder = msg.sender;\r\n        bidsmapping[_tokenId].tokenid = _tokenId;\r\n        \r\n        \r\n        forBids memory newBid=forBids({\r\n            bidder : msg.sender,\r\n            bidPrice: msg.value,\r\n            tokenid:_tokenId\r\n        });\r\n        \r\n        bidsArray.push(newBid);\r\n        emit MakeBid(msg.value, _tokenId, msg.sender);\r\n    }\r\n   \r\n    function onBidComplete(uint256 tokenId) external onlyOwner() tokenNotSoldAlready(tokenId) payable returns(orderDetails memory){\r\n        \r\n        require((block.timestamp - bidItems[tokenId].timeTillBidComplete)>=0,\"Bidding time is still running\");\r\n        require(bidItems[tokenId].timeOnBid!=0,\"Token is not buyable!\");\r\n        require(!bidItems[tokenId].sold,\"Token is already sold!\");\r\n        require(bidItems[tokenId].onBid == true,\"Token is not on Bid!\");\r\n        require(nft.isApprovedForAll(bidItems[tokenId].owner,address(this)),'Token is not approved to tranfer!');\r\n\r\n        orderDetails memory newOrder = orderDetails({\r\n            tokenId: tokenId,\r\n            buyer: bidsmapping[tokenId].bidder,\r\n            seller: bidItems[tokenId].owner,\r\n            totalPrice:bidsmapping[tokenId].bidPrice,\r\n            time:block.timestamp\r\n        });\r\n        \r\n        orderLogs[bidsmapping[tokenId].bidder].push(newOrder);\r\n        changeBidTokenStatus(tokenId,true);  \r\n        \r\n        uint256 bidPrice = bidsmapping[tokenId].bidPrice;\r\n        uint256 amount = bidPrice.sub(bidPrice.mul(platformFee).div(100));\r\n        payable(contractOwner).transfer(bidPrice.mul(platformFee).div(100));\r\n        \r\n        payable(bidItems[tokenId].owner).transfer(amount);\r\n        \r\n        nft.safeTransferFrom(bidItems[tokenId].owner,bidsmapping[tokenId].bidder,tokenId);\r\n        emit OnBidComplete(tokenId,bidsmapping[tokenId].bidder,bidsmapping[tokenId].bidPrice, bidItems[tokenId].owner,newOrder);\r\n        return newOrder;\r\n    }\r\n    \r\n}\r\n",
  "sourcePath": "C:/Users/Rishikesh Kale/BaseNFT/contracts/Auction.sol",
  "compiler": {
    "name": "solc",
    "version": "0.8.10+commit.fc410830.Emscripten.clang"
  },
  "schemaVersion": "3.4.1",
  "updatedAt": "2021-11-22T16:12:51.161Z",
  "networkType": "ethereum",
  "devdoc": {
    "kind": "dev",
    "methods": {},
    "version": 1
  },
  "userdoc": {
    "kind": "user",
    "methods": {},
    "version": 1
  }
}